{
  "_format": "hh-sol-artifact-1",
  "contractName": "ExchangeWallet",
  "sourceName": "contracts/exchange/ExchangeWallet.sol",
  "abi": [
    {
      "inputs": [
        {
          "internalType": "address",
          "name": "_goldCoinToken",
          "type": "address"
        }
      ],
      "stateMutability": "nonpayable",
      "type": "constructor"
    },
    {
      "anonymous": false,
      "inputs": [
        {
          "indexed": true,
          "internalType": "address",
          "name": "previousOwner",
          "type": "address"
        },
        {
          "indexed": true,
          "internalType": "address",
          "name": "newOwner",
          "type": "address"
        }
      ],
      "name": "OwnershipTransferred",
      "type": "event"
    },
    {
      "inputs": [],
      "name": "exchange",
      "outputs": [],
      "stateMutability": "nonpayable",
      "type": "function"
    },
    {
      "inputs": [],
      "name": "owner",
      "outputs": [
        {
          "internalType": "address",
          "name": "",
          "type": "address"
        }
      ],
      "stateMutability": "view",
      "type": "function"
    },
    {
      "inputs": [],
      "name": "renounceOwnership",
      "outputs": [],
      "stateMutability": "nonpayable",
      "type": "function"
    },
    {
      "inputs": [
        {
          "internalType": "address",
          "name": "newOwner",
          "type": "address"
        }
      ],
      "name": "transferOwnership",
      "outputs": [],
      "stateMutability": "nonpayable",
      "type": "function"
    }
  ],
  "bytecode": "0x608060405234801561001057600080fd5b50604051610839380380610839833981810160405281019061003291906101c4565b61004e61004361009560201b60201c565b61009d60201b60201c565b80600160006101000a81548173ffffffffffffffffffffffffffffffffffffffff021916908373ffffffffffffffffffffffffffffffffffffffff160217905550506101f1565b600033905090565b60008060009054906101000a900473ffffffffffffffffffffffffffffffffffffffff169050816000806101000a81548173ffffffffffffffffffffffffffffffffffffffff021916908373ffffffffffffffffffffffffffffffffffffffff1602179055508173ffffffffffffffffffffffffffffffffffffffff168173ffffffffffffffffffffffffffffffffffffffff167f8be0079c531659141344cd1fd0a4f28419497f9722a3daafe3b4186f6b6457e060405160405180910390a35050565b600080fd5b600073ffffffffffffffffffffffffffffffffffffffff82169050919050565b600061019182610166565b9050919050565b6101a181610186565b81146101ac57600080fd5b50565b6000815190506101be81610198565b92915050565b6000602082840312156101da576101d9610161565b5b60006101e8848285016101af565b91505092915050565b610639806102006000396000f3fe608060405234801561001057600080fd5b506004361061004c5760003560e01c8063715018a6146100515780638da5cb5b1461005b578063d2f7265a14610079578063f2fde38b14610083575b600080fd5b61005961009f565b005b6100636100b3565b604051610070919061039e565b60405180910390f35b6100816100dc565b005b61009d600480360381019061009891906103ea565b61018f565b005b6100a7610213565b6100b16000610291565b565b60008060009054906101000a900473ffffffffffffffffffffffffffffffffffffffff16905090565b600160009054906101000a900473ffffffffffffffffffffffffffffffffffffffff1673ffffffffffffffffffffffffffffffffffffffff1663a9059cbb3360016040518363ffffffff1660e01b815260040161013a929190610466565b602060405180830381600087803b15801561015457600080fd5b505af1158015610168573d6000803e3d6000fd5b505050506040513d601f19601f8201168201806040525081019061018c91906104c7565b50565b610197610213565b600073ffffffffffffffffffffffffffffffffffffffff168173ffffffffffffffffffffffffffffffffffffffff161415610207576040517f08c379a00000000000000000000000000000000000000000000000000000000081526004016101fe90610577565b60405180910390fd5b61021081610291565b50565b61021b610355565b73ffffffffffffffffffffffffffffffffffffffff166102396100b3565b73ffffffffffffffffffffffffffffffffffffffff161461028f576040517f08c379a0000000000000000000000000000000000000000000000000000000008152600401610286906105e3565b60405180910390fd5b565b60008060009054906101000a900473ffffffffffffffffffffffffffffffffffffffff169050816000806101000a81548173ffffffffffffffffffffffffffffffffffffffff021916908373ffffffffffffffffffffffffffffffffffffffff1602179055508173ffffffffffffffffffffffffffffffffffffffff168173ffffffffffffffffffffffffffffffffffffffff167f8be0079c531659141344cd1fd0a4f28419497f9722a3daafe3b4186f6b6457e060405160405180910390a35050565b600033905090565b600073ffffffffffffffffffffffffffffffffffffffff82169050919050565b60006103888261035d565b9050919050565b6103988161037d565b82525050565b60006020820190506103b3600083018461038f565b92915050565b600080fd5b6103c78161037d565b81146103d257600080fd5b50565b6000813590506103e4816103be565b92915050565b600060208284031215610400576103ff6103b9565b5b600061040e848285016103d5565b91505092915050565b6000819050919050565b6000819050919050565b6000819050919050565b600061045061044b61044684610417565b61042b565b610421565b9050919050565b61046081610435565b82525050565b600060408201905061047b600083018561038f565b6104886020830184610457565b9392505050565b60008115159050919050565b6104a48161048f565b81146104af57600080fd5b50565b6000815190506104c18161049b565b92915050565b6000602082840312156104dd576104dc6103b9565b5b60006104eb848285016104b2565b91505092915050565b600082825260208201905092915050565b7f4f776e61626c653a206e6577206f776e657220697320746865207a65726f206160008201527f6464726573730000000000000000000000000000000000000000000000000000602082015250565b60006105616026836104f4565b915061056c82610505565b604082019050919050565b6000602082019050818103600083015261059081610554565b9050919050565b7f4f776e61626c653a2063616c6c6572206973206e6f7420746865206f776e6572600082015250565b60006105cd6020836104f4565b91506105d882610597565b602082019050919050565b600060208201905081810360008301526105fc816105c0565b905091905056fea2646970667358221220229003e506a87909bc5d9bc54b23e73df29ab235df7c3a8bc8211233c470d97364736f6c63430008090033",
  "linkReferences": {},
  "deployedLinkReferences": {}
}