{
  "_format": "hh-sol-artifact-1",
  "contractName": "GoldCoinToken",
  "sourceName": "contracts/gold/GoldCoinToken.sol",
  "abi": [
    {
      "inputs": [
        {
          "internalType": "uint256",
          "name": "_amountFixed",
          "type": "uint256"
        },
        {
          "internalType": "uint256",
          "name": "_reservesRatio",
          "type": "uint256"
        }
      ],
      "stateMutability": "nonpayable",
      "type": "constructor"
    },
    {
      "anonymous": false,
      "inputs": [
        {
          "indexed": true,
          "internalType": "address",
          "name": "owner",
          "type": "address"
        },
        {
          "indexed": true,
          "internalType": "address",
          "name": "spender",
          "type": "address"
        },
        {
          "indexed": false,
          "internalType": "uint256",
          "name": "value",
          "type": "uint256"
        }
      ],
      "name": "Approval",
      "type": "event"
    },
    {
      "anonymous": false,
      "inputs": [
        {
          "indexed": true,
          "internalType": "address",
          "name": "previousOwner",
          "type": "address"
        },
        {
          "indexed": true,
          "internalType": "address",
          "name": "newOwner",
          "type": "address"
        }
      ],
      "name": "OwnershipTransferred",
      "type": "event"
    },
    {
      "anonymous": false,
      "inputs": [
        {
          "indexed": true,
          "internalType": "address",
          "name": "from",
          "type": "address"
        },
        {
          "indexed": true,
          "internalType": "address",
          "name": "to",
          "type": "address"
        },
        {
          "indexed": false,
          "internalType": "uint256",
          "name": "value",
          "type": "uint256"
        }
      ],
      "name": "Transfer",
      "type": "event"
    },
    {
      "inputs": [
        {
          "internalType": "address",
          "name": "owner",
          "type": "address"
        },
        {
          "internalType": "address",
          "name": "spender",
          "type": "address"
        }
      ],
      "name": "allowance",
      "outputs": [
        {
          "internalType": "uint256",
          "name": "",
          "type": "uint256"
        }
      ],
      "stateMutability": "view",
      "type": "function"
    },
    {
      "inputs": [],
      "name": "amountFixed",
      "outputs": [
        {
          "internalType": "uint256",
          "name": "",
          "type": "uint256"
        }
      ],
      "stateMutability": "view",
      "type": "function"
    },
    {
      "inputs": [
        {
          "internalType": "address",
          "name": "spender",
          "type": "address"
        },
        {
          "internalType": "uint256",
          "name": "amount",
          "type": "uint256"
        }
      ],
      "name": "approve",
      "outputs": [
        {
          "internalType": "bool",
          "name": "",
          "type": "bool"
        }
      ],
      "stateMutability": "nonpayable",
      "type": "function"
    },
    {
      "inputs": [
        {
          "internalType": "address",
          "name": "account",
          "type": "address"
        }
      ],
      "name": "balanceOf",
      "outputs": [
        {
          "internalType": "uint256",
          "name": "",
          "type": "uint256"
        }
      ],
      "stateMutability": "view",
      "type": "function"
    },
    {
      "inputs": [],
      "name": "decimals",
      "outputs": [
        {
          "internalType": "uint8",
          "name": "",
          "type": "uint8"
        }
      ],
      "stateMutability": "view",
      "type": "function"
    },
    {
      "inputs": [
        {
          "internalType": "address",
          "name": "spender",
          "type": "address"
        },
        {
          "internalType": "uint256",
          "name": "subtractedValue",
          "type": "uint256"
        }
      ],
      "name": "decreaseAllowance",
      "outputs": [
        {
          "internalType": "bool",
          "name": "",
          "type": "bool"
        }
      ],
      "stateMutability": "nonpayable",
      "type": "function"
    },
    {
      "inputs": [],
      "name": "exchangeWallet",
      "outputs": [
        {
          "internalType": "address",
          "name": "",
          "type": "address"
        }
      ],
      "stateMutability": "view",
      "type": "function"
    },
    {
      "inputs": [
        {
          "internalType": "uint256",
          "name": "total",
          "type": "uint256"
        },
        {
          "internalType": "uint256",
          "name": "prop",
          "type": "uint256"
        }
      ],
      "name": "getAmount",
      "outputs": [
        {
          "internalType": "uint256",
          "name": "",
          "type": "uint256"
        }
      ],
      "stateMutability": "pure",
      "type": "function"
    },
    {
      "inputs": [
        {
          "internalType": "address",
          "name": "spender",
          "type": "address"
        },
        {
          "internalType": "uint256",
          "name": "addedValue",
          "type": "uint256"
        }
      ],
      "name": "increaseAllowance",
      "outputs": [
        {
          "internalType": "bool",
          "name": "",
          "type": "bool"
        }
      ],
      "stateMutability": "nonpayable",
      "type": "function"
    },
    {
      "inputs": [],
      "name": "mintEveryday",
      "outputs": [],
      "stateMutability": "nonpayable",
      "type": "function"
    },
    {
      "inputs": [],
      "name": "name",
      "outputs": [
        {
          "internalType": "string",
          "name": "",
          "type": "string"
        }
      ],
      "stateMutability": "view",
      "type": "function"
    },
    {
      "inputs": [],
      "name": "owner",
      "outputs": [
        {
          "internalType": "address",
          "name": "",
          "type": "address"
        }
      ],
      "stateMutability": "view",
      "type": "function"
    },
    {
      "inputs": [],
      "name": "renounceOwnership",
      "outputs": [],
      "stateMutability": "nonpayable",
      "type": "function"
    },
    {
      "inputs": [],
      "name": "reservesRatio",
      "outputs": [
        {
          "internalType": "uint256",
          "name": "",
          "type": "uint256"
        }
      ],
      "stateMutability": "view",
      "type": "function"
    },
    {
      "inputs": [],
      "name": "reservesWallet",
      "outputs": [
        {
          "internalType": "address",
          "name": "",
          "type": "address"
        }
      ],
      "stateMutability": "view",
      "type": "function"
    },
    {
      "inputs": [
        {
          "internalType": "uint256",
          "name": "_amountFixed",
          "type": "uint256"
        }
      ],
      "name": "setAmountFixed",
      "outputs": [],
      "stateMutability": "nonpayable",
      "type": "function"
    },
    {
      "inputs": [
        {
          "internalType": "address",
          "name": "wallet",
          "type": "address"
        }
      ],
      "name": "setExchangeWallet",
      "outputs": [],
      "stateMutability": "nonpayable",
      "type": "function"
    },
    {
      "inputs": [
        {
          "internalType": "address",
          "name": "signer",
          "type": "address"
        }
      ],
      "name": "setKey",
      "outputs": [],
      "stateMutability": "nonpayable",
      "type": "function"
    },
    {
      "inputs": [
        {
          "internalType": "uint256",
          "name": "_reservesRatio",
          "type": "uint256"
        }
      ],
      "name": "setReservesRatio",
      "outputs": [],
      "stateMutability": "nonpayable",
      "type": "function"
    },
    {
      "inputs": [
        {
          "internalType": "address",
          "name": "wallet",
          "type": "address"
        }
      ],
      "name": "setReservesWallet",
      "outputs": [],
      "stateMutability": "nonpayable",
      "type": "function"
    },
    {
      "inputs": [],
      "name": "symbol",
      "outputs": [
        {
          "internalType": "string",
          "name": "",
          "type": "string"
        }
      ],
      "stateMutability": "view",
      "type": "function"
    },
    {
      "inputs": [],
      "name": "totalSupply",
      "outputs": [
        {
          "internalType": "uint256",
          "name": "",
          "type": "uint256"
        }
      ],
      "stateMutability": "view",
      "type": "function"
    },
    {
      "inputs": [
        {
          "internalType": "address",
          "name": "to",
          "type": "address"
        },
        {
          "internalType": "uint256",
          "name": "amount",
          "type": "uint256"
        }
      ],
      "name": "transfer",
      "outputs": [
        {
          "internalType": "bool",
          "name": "",
          "type": "bool"
        }
      ],
      "stateMutability": "nonpayable",
      "type": "function"
    },
    {
      "inputs": [
        {
          "internalType": "address",
          "name": "from",
          "type": "address"
        },
        {
          "internalType": "address",
          "name": "to",
          "type": "address"
        },
        {
          "internalType": "uint256",
          "name": "amount",
          "type": "uint256"
        }
      ],
      "name": "transferFrom",
      "outputs": [
        {
          "internalType": "bool",
          "name": "",
          "type": "bool"
        }
      ],
      "stateMutability": "nonpayable",
      "type": "function"
    },
    {
      "inputs": [
        {
          "internalType": "address",
          "name": "newOwner",
          "type": "address"
        }
      ],
      "name": "transferOwnership",
      "outputs": [],
      "stateMutability": "nonpayable",
      "type": "function"
    }
  ],
  "bytecode": "0x60806040523480156200001157600080fd5b50604051620022cb380380620022cb8339818101604052810190620000379190620002cb565b6040518060400160405280600981526020017f476f6c642d436f696e00000000000000000000000000000000000000000000008152506040518060400160405280600481526020017f474c4443000000000000000000000000000000000000000000000000000000008152508160039080519060200190620000bb929190620001db565b508060049080519060200190620000d4929190620001db565b505050620000f7620000eb6200010d60201b60201c565b6200011560201b60201c565b8160068190555080600781905550505062000377565b600033905090565b6000600560009054906101000a900473ffffffffffffffffffffffffffffffffffffffff16905081600560006101000a81548173ffffffffffffffffffffffffffffffffffffffff021916908373ffffffffffffffffffffffffffffffffffffffff1602179055508173ffffffffffffffffffffffffffffffffffffffff168173ffffffffffffffffffffffffffffffffffffffff167f8be0079c531659141344cd1fd0a4f28419497f9722a3daafe3b4186f6b6457e060405160405180910390a35050565b828054620001e99062000341565b90600052602060002090601f0160209004810192826200020d576000855562000259565b82601f106200022857805160ff191683800117855562000259565b8280016001018555821562000259579182015b82811115620002585782518255916020019190600101906200023b565b5b5090506200026891906200026c565b5090565b5b80821115620002875760008160009055506001016200026d565b5090565b600080fd5b6000819050919050565b620002a58162000290565b8114620002b157600080fd5b50565b600081519050620002c5816200029a565b92915050565b60008060408385031215620002e557620002e46200028b565b5b6000620002f585828601620002b4565b92505060206200030885828601620002b4565b9150509250929050565b7f4e487b7100000000000000000000000000000000000000000000000000000000600052602260045260246000fd5b600060028204905060018216806200035a57607f821691505b6020821081141562000371576200037062000312565b5b50919050565b611f4480620003876000396000f3fe608060405234801561001057600080fd5b50600436106101735760003560e01c8063715018a6116100de578063a457c2d711610097578063dd62ed3e11610071578063dd62ed3e1461043e578063f2fde38b1461046e578063f64b3c6d1461048a578063fbe02eb2146104a657610173565b8063a457c2d7146103c2578063a9059cbb146103f2578063b4a8e1011461042257610173565b8063715018a614610336578063803965c41461034057806380bef5271461035e5780638da5cb5b1461037c57806395d89b411461039a578063a39dc944146103b857610173565b8063313ce56711610130578063313ce5671461024c578063395093511461026a5780634ca989971461029a5780635146690e146102ca57806355ef1df2146102e857806370a082311461030657610173565b80630619615b1461017857806306fdde0314610194578063095ea7b3146101b25780630b159353146101e257806318160ddd146101fe57806323b872dd1461021c575b600080fd5b610192600480360381019061018d91906113b3565b6104c2565b005b61019c6104d4565b6040516101a99190611479565b60405180910390f35b6101cc60048036038101906101c791906114f9565b610566565b6040516101d99190611554565b60405180910390f35b6101fc60048036038101906101f7919061156f565b610589565b005b6102066105d5565b60405161021391906115ab565b60405180910390f35b610236600480360381019061023191906115c6565b6105df565b6040516102439190611554565b60405180910390f35b61025461060e565b6040516102619190611635565b60405180910390f35b610284600480360381019061027f91906114f9565b610617565b6040516102919190611554565b60405180910390f35b6102b460048036038101906102af9190611650565b61064e565b6040516102c191906115ab565b60405180910390f35b6102d2610670565b6040516102df919061169f565b60405180910390f35b6102f0610696565b6040516102fd919061169f565b60405180910390f35b610320600480360381019061031b919061156f565b6106bc565b60405161032d91906115ab565b60405180910390f35b61033e610704565b005b610348610718565b60405161035591906115ab565b60405180910390f35b61036661071e565b60405161037391906115ab565b60405180910390f35b610384610724565b604051610391919061169f565b60405180910390f35b6103a261074e565b6040516103af9190611479565b60405180910390f35b6103c06107e0565b005b6103dc60048036038101906103d791906114f9565b61099b565b6040516103e99190611554565b60405180910390f35b61040c600480360381019061040791906114f9565b610a12565b6040516104199190611554565b60405180910390f35b61043c600480360381019061043791906113b3565b610a35565b005b610458600480360381019061045391906116ba565b610a47565b60405161046591906115ab565b60405180910390f35b6104886004803603810190610483919061156f565b610ace565b005b6104a4600480360381019061049f919061156f565b610b52565b005b6104c060048036038101906104bb919061156f565b610b9e565b005b6104ca610bea565b8060068190555050565b6060600380546104e390611729565b80601f016020809104026020016040519081016040528092919081815260200182805461050f90611729565b801561055c5780601f106105315761010080835404028352916020019161055c565b820191906000526020600020905b81548152906001019060200180831161053f57829003601f168201915b5050505050905090565b600080610571610c68565b905061057e818585610c70565b600191505092915050565b610591610bea565b80600a60006101000a81548173ffffffffffffffffffffffffffffffffffffffff021916908373ffffffffffffffffffffffffffffffffffffffff16021790555050565b6000600254905090565b6000806105ea610c68565b90506105f7858285610e3b565b610602858585610ec7565b60019150509392505050565b60006012905090565b600080610622610c68565b90506106438185856106348589610a47565b61063e919061178a565b610c70565b600191505092915050565b60006064828461065e91906117e0565b6106689190611869565b905092915050565b600960009054906101000a900473ffffffffffffffffffffffffffffffffffffffff1681565b600a60009054906101000a900473ffffffffffffffffffffffffffffffffffffffff1681565b60008060008373ffffffffffffffffffffffffffffffffffffffff1673ffffffffffffffffffffffffffffffffffffffff168152602001908152602001600020549050919050565b61070c610bea565b6107166000611148565b565b60065481565b60075481565b6000600560009054906101000a900473ffffffffffffffffffffffffffffffffffffffff16905090565b60606004805461075d90611729565b80601f016020809104026020016040519081016040528092919081815260200182805461078990611729565b80156107d65780601f106107ab576101008083540402835291602001916107d6565b820191906000526020600020905b8154815290600101906020018083116107b957829003601f168201915b5050505050905090565b6107e8610bea565b600960009054906101000a900473ffffffffffffffffffffffffffffffffffffffff1673ffffffffffffffffffffffffffffffffffffffff16600073ffffffffffffffffffffffffffffffffffffffff16141580156108965750600a60009054906101000a900473ffffffffffffffffffffffffffffffffffffffff1673ffffffffffffffffffffffffffffffffffffffff16600073ffffffffffffffffffffffffffffffffffffffff1614155b6108d5576040517f08c379a00000000000000000000000000000000000000000000000000000000081526004016108cc9061190c565b60405180910390fd5b6006546000141561091b576040517f08c379a000000000000000000000000000000000000000000000000000000000815260040161091290611978565b60405180910390fd5b610954600960009054906101000a900473ffffffffffffffffffffffffffffffffffffffff1661094f60065460075461064e565b61120e565b610999600a60009054906101000a900473ffffffffffffffffffffffffffffffffffffffff16610994600654600754606461098f9190611998565b61064e565b61120e565b565b6000806109a6610c68565b905060006109b48286610a47565b9050838110156109f9576040517f08c379a00000000000000000000000000000000000000000000000000000000081526004016109f090611a3e565b60405180910390fd5b610a068286868403610c70565b60019250505092915050565b600080610a1d610c68565b9050610a2a818585610ec7565b600191505092915050565b610a3d610bea565b8060078190555050565b6000600160008473ffffffffffffffffffffffffffffffffffffffff1673ffffffffffffffffffffffffffffffffffffffff16815260200190815260200160002060008373ffffffffffffffffffffffffffffffffffffffff1673ffffffffffffffffffffffffffffffffffffffff16815260200190815260200160002054905092915050565b610ad6610bea565b600073ffffffffffffffffffffffffffffffffffffffff168173ffffffffffffffffffffffffffffffffffffffff161415610b46576040517f08c379a0000000000000000000000000000000000000000000000000000000008152600401610b3d90611ad0565b60405180910390fd5b610b4f81611148565b50565b610b5a610bea565b80600960006101000a81548173ffffffffffffffffffffffffffffffffffffffff021916908373ffffffffffffffffffffffffffffffffffffffff16021790555050565b610ba6610bea565b80600860006101000a81548173ffffffffffffffffffffffffffffffffffffffff021916908373ffffffffffffffffffffffffffffffffffffffff16021790555050565b610bf2610c68565b73ffffffffffffffffffffffffffffffffffffffff16610c10610724565b73ffffffffffffffffffffffffffffffffffffffff1614610c66576040517f08c379a0000000000000000000000000000000000000000000000000000000008152600401610c5d90611b3c565b60405180910390fd5b565b600033905090565b600073ffffffffffffffffffffffffffffffffffffffff168373ffffffffffffffffffffffffffffffffffffffff161415610ce0576040517f08c379a0000000000000000000000000000000000000000000000000000000008152600401610cd790611bce565b60405180910390fd5b600073ffffffffffffffffffffffffffffffffffffffff168273ffffffffffffffffffffffffffffffffffffffff161415610d50576040517f08c379a0000000000000000000000000000000000000000000000000000000008152600401610d4790611c60565b60405180910390fd5b80600160008573ffffffffffffffffffffffffffffffffffffffff1673ffffffffffffffffffffffffffffffffffffffff16815260200190815260200160002060008473ffffffffffffffffffffffffffffffffffffffff1673ffffffffffffffffffffffffffffffffffffffff168152602001908152602001600020819055508173ffffffffffffffffffffffffffffffffffffffff168373ffffffffffffffffffffffffffffffffffffffff167f8c5be1e5ebec7d5bd14f71427d1e84f3dd0314c0f7b2291e5b200ac8c7c3b92583604051610e2e91906115ab565b60405180910390a3505050565b6000610e478484610a47565b90507fffffffffffffffffffffffffffffffffffffffffffffffffffffffffffffffff8114610ec15781811015610eb3576040517f08c379a0000000000000000000000000000000000000000000000000000000008152600401610eaa90611ccc565b60405180910390fd5b610ec08484848403610c70565b5b50505050565b600073ffffffffffffffffffffffffffffffffffffffff168373ffffffffffffffffffffffffffffffffffffffff161415610f37576040517f08c379a0000000000000000000000000000000000000000000000000000000008152600401610f2e90611d5e565b60405180910390fd5b600073ffffffffffffffffffffffffffffffffffffffff168273ffffffffffffffffffffffffffffffffffffffff161415610fa7576040517f08c379a0000000000000000000000000000000000000000000000000000000008152600401610f9e90611df0565b60405180910390fd5b610fb283838361136e565b60008060008573ffffffffffffffffffffffffffffffffffffffff1673ffffffffffffffffffffffffffffffffffffffff16815260200190815260200160002054905081811015611038576040517f08c379a000000000000000000000000000000000000000000000000000000000815260040161102f90611e82565b60405180910390fd5b8181036000808673ffffffffffffffffffffffffffffffffffffffff1673ffffffffffffffffffffffffffffffffffffffff16815260200190815260200160002081905550816000808573ffffffffffffffffffffffffffffffffffffffff1673ffffffffffffffffffffffffffffffffffffffff16815260200190815260200160002060008282546110cb919061178a565b925050819055508273ffffffffffffffffffffffffffffffffffffffff168473ffffffffffffffffffffffffffffffffffffffff167fddf252ad1be2c89b69c2b068fc378daa952ba7f163c4a11628f55a4df523b3ef8460405161112f91906115ab565b60405180910390a3611142848484611373565b50505050565b6000600560009054906101000a900473ffffffffffffffffffffffffffffffffffffffff16905081600560006101000a81548173ffffffffffffffffffffffffffffffffffffffff021916908373ffffffffffffffffffffffffffffffffffffffff1602179055508173ffffffffffffffffffffffffffffffffffffffff168173ffffffffffffffffffffffffffffffffffffffff167f8be0079c531659141344cd1fd0a4f28419497f9722a3daafe3b4186f6b6457e060405160405180910390a35050565b600073ffffffffffffffffffffffffffffffffffffffff168273ffffffffffffffffffffffffffffffffffffffff16141561127e576040517f08c379a000000000000000000000000000000000000000000000000000000000815260040161127590611eee565b60405180910390fd5b61128a6000838361136e565b806002600082825461129c919061178a565b92505081905550806000808473ffffffffffffffffffffffffffffffffffffffff1673ffffffffffffffffffffffffffffffffffffffff16815260200190815260200160002060008282546112f1919061178a565b925050819055508173ffffffffffffffffffffffffffffffffffffffff16600073ffffffffffffffffffffffffffffffffffffffff167fddf252ad1be2c89b69c2b068fc378daa952ba7f163c4a11628f55a4df523b3ef8360405161135691906115ab565b60405180910390a361136a60008383611373565b5050565b505050565b505050565b600080fd5b6000819050919050565b6113908161137d565b811461139b57600080fd5b50565b6000813590506113ad81611387565b92915050565b6000602082840312156113c9576113c8611378565b5b60006113d78482850161139e565b91505092915050565b600081519050919050565b600082825260208201905092915050565b60005b8381101561141a5780820151818401526020810190506113ff565b83811115611429576000848401525b50505050565b6000601f19601f8301169050919050565b600061144b826113e0565b61145581856113eb565b93506114658185602086016113fc565b61146e8161142f565b840191505092915050565b600060208201905081810360008301526114938184611440565b905092915050565b600073ffffffffffffffffffffffffffffffffffffffff82169050919050565b60006114c68261149b565b9050919050565b6114d6816114bb565b81146114e157600080fd5b50565b6000813590506114f3816114cd565b92915050565b600080604083850312156115105761150f611378565b5b600061151e858286016114e4565b925050602061152f8582860161139e565b9150509250929050565b60008115159050919050565b61154e81611539565b82525050565b60006020820190506115696000830184611545565b92915050565b60006020828403121561158557611584611378565b5b6000611593848285016114e4565b91505092915050565b6115a58161137d565b82525050565b60006020820190506115c0600083018461159c565b92915050565b6000806000606084860312156115df576115de611378565b5b60006115ed868287016114e4565b93505060206115fe868287016114e4565b925050604061160f8682870161139e565b9150509250925092565b600060ff82169050919050565b61162f81611619565b82525050565b600060208201905061164a6000830184611626565b92915050565b6000806040838503121561166757611666611378565b5b60006116758582860161139e565b92505060206116868582860161139e565b9150509250929050565b611699816114bb565b82525050565b60006020820190506116b46000830184611690565b92915050565b600080604083850312156116d1576116d0611378565b5b60006116df858286016114e4565b92505060206116f0858286016114e4565b9150509250929050565b7f4e487b7100000000000000000000000000000000000000000000000000000000600052602260045260246000fd5b6000600282049050600182168061174157607f821691505b60208210811415611755576117546116fa565b5b50919050565b7f4e487b7100000000000000000000000000000000000000000000000000000000600052601160045260246000fd5b60006117958261137d565b91506117a08361137d565b9250827fffffffffffffffffffffffffffffffffffffffffffffffffffffffffffffffff038211156117d5576117d461175b565b5b828201905092915050565b60006117eb8261137d565b91506117f68361137d565b9250817fffffffffffffffffffffffffffffffffffffffffffffffffffffffffffffffff048311821515161561182f5761182e61175b565b5b828202905092915050565b7f4e487b7100000000000000000000000000000000000000000000000000000000600052601260045260246000fd5b60006118748261137d565b915061187f8361137d565b92508261188f5761188e61183a565b5b828204905092915050565b7f6e6f74207365742052657365727665732057616c6c657420616e64204578636860008201527f616e67652057616c6c6574210000000000000000000000000000000000000000602082015250565b60006118f6602c836113eb565b91506119018261189a565b604082019050919050565b60006020820190508181036000830152611925816118e9565b9050919050565b7f6e6f742073657420657665727964617920666978656420616d6f756e74000000600082015250565b6000611962601d836113eb565b915061196d8261192c565b602082019050919050565b6000602082019050818103600083015261199181611955565b9050919050565b60006119a38261137d565b91506119ae8361137d565b9250828210156119c1576119c061175b565b5b828203905092915050565b7f45524332303a2064656372656173656420616c6c6f77616e63652062656c6f7760008201527f207a65726f000000000000000000000000000000000000000000000000000000602082015250565b6000611a286025836113eb565b9150611a33826119cc565b604082019050919050565b60006020820190508181036000830152611a5781611a1b565b9050919050565b7f4f776e61626c653a206e6577206f776e657220697320746865207a65726f206160008201527f6464726573730000000000000000000000000000000000000000000000000000602082015250565b6000611aba6026836113eb565b9150611ac582611a5e565b604082019050919050565b60006020820190508181036000830152611ae981611aad565b9050919050565b7f4f776e61626c653a2063616c6c6572206973206e6f7420746865206f776e6572600082015250565b6000611b266020836113eb565b9150611b3182611af0565b602082019050919050565b60006020820190508181036000830152611b5581611b19565b9050919050565b7f45524332303a20617070726f76652066726f6d20746865207a65726f2061646460008201527f7265737300000000000000000000000000000000000000000000000000000000602082015250565b6000611bb86024836113eb565b9150611bc382611b5c565b604082019050919050565b60006020820190508181036000830152611be781611bab565b9050919050565b7f45524332303a20617070726f766520746f20746865207a65726f20616464726560008201527f7373000000000000000000000000000000000000000000000000000000000000602082015250565b6000611c4a6022836113eb565b9150611c5582611bee565b604082019050919050565b60006020820190508181036000830152611c7981611c3d565b9050919050565b7f45524332303a20696e73756666696369656e7420616c6c6f77616e6365000000600082015250565b6000611cb6601d836113eb565b9150611cc182611c80565b602082019050919050565b60006020820190508181036000830152611ce581611ca9565b9050919050565b7f45524332303a207472616e736665722066726f6d20746865207a65726f20616460008201527f6472657373000000000000000000000000000000000000000000000000000000602082015250565b6000611d486025836113eb565b9150611d5382611cec565b604082019050919050565b60006020820190508181036000830152611d7781611d3b565b9050919050565b7f45524332303a207472616e7366657220746f20746865207a65726f206164647260008201527f6573730000000000000000000000000000000000000000000000000000000000602082015250565b6000611dda6023836113eb565b9150611de582611d7e565b604082019050919050565b60006020820190508181036000830152611e0981611dcd565b9050919050565b7f45524332303a207472616e7366657220616d6f756e742065786365656473206260008201527f616c616e63650000000000000000000000000000000000000000000000000000602082015250565b6000611e6c6026836113eb565b9150611e7782611e10565b604082019050919050565b60006020820190508181036000830152611e9b81611e5f565b9050919050565b7f45524332303a206d696e7420746f20746865207a65726f206164647265737300600082015250565b6000611ed8601f836113eb565b9150611ee382611ea2565b602082019050919050565b60006020820190508181036000830152611f0781611ecb565b905091905056fea26469706673582212208b5f8e7e55bd2ff2baef94a1c22946d4689a9c25ee0bc5589acf52505e39618164736f6c63430008090033",
  "linkReferences": {},
  "deployedLinkReferences": {}
}