{
  "_format": "hh-sol-artifact-1",
  "contractName": "ReservesWallet",
  "sourceName": "contracts/exchange/ReservesWallet.sol",
  "abi": [
    {
      "inputs": [
        {
          "internalType": "address",
          "name": "_goldCoinToken",
          "type": "address"
        },
        {
          "internalType": "address",
          "name": "_exchangeWalelt",
          "type": "address"
        }
      ],
      "stateMutability": "nonpayable",
      "type": "constructor"
    },
    {
      "anonymous": false,
      "inputs": [
        {
          "indexed": true,
          "internalType": "address",
          "name": "previousOwner",
          "type": "address"
        },
        {
          "indexed": true,
          "internalType": "address",
          "name": "newOwner",
          "type": "address"
        }
      ],
      "name": "OwnershipTransferred",
      "type": "event"
    },
    {
      "inputs": [],
      "name": "exchangeWallet",
      "outputs": [
        {
          "internalType": "address",
          "name": "",
          "type": "address"
        }
      ],
      "stateMutability": "view",
      "type": "function"
    },
    {
      "inputs": [],
      "name": "owner",
      "outputs": [
        {
          "internalType": "address",
          "name": "",
          "type": "address"
        }
      ],
      "stateMutability": "view",
      "type": "function"
    },
    {
      "inputs": [],
      "name": "renounceOwnership",
      "outputs": [],
      "stateMutability": "nonpayable",
      "type": "function"
    },
    {
      "inputs": [],
      "name": "supply",
      "outputs": [],
      "stateMutability": "nonpayable",
      "type": "function"
    },
    {
      "inputs": [
        {
          "internalType": "address",
          "name": "newOwner",
          "type": "address"
        }
      ],
      "name": "transferOwnership",
      "outputs": [],
      "stateMutability": "nonpayable",
      "type": "function"
    }
  ],
  "bytecode": "0x608060405234801561001057600080fd5b506040516108ff3803806108ff83398181016040528101906100329190610206565b61004e6100436100d760201b60201c565b6100df60201b60201c565b81600160006101000a81548173ffffffffffffffffffffffffffffffffffffffff021916908373ffffffffffffffffffffffffffffffffffffffff16021790555080600260006101000a81548173ffffffffffffffffffffffffffffffffffffffff021916908373ffffffffffffffffffffffffffffffffffffffff1602179055505050610246565b600033905090565b60008060009054906101000a900473ffffffffffffffffffffffffffffffffffffffff169050816000806101000a81548173ffffffffffffffffffffffffffffffffffffffff021916908373ffffffffffffffffffffffffffffffffffffffff1602179055508173ffffffffffffffffffffffffffffffffffffffff168173ffffffffffffffffffffffffffffffffffffffff167f8be0079c531659141344cd1fd0a4f28419497f9722a3daafe3b4186f6b6457e060405160405180910390a35050565b600080fd5b600073ffffffffffffffffffffffffffffffffffffffff82169050919050565b60006101d3826101a8565b9050919050565b6101e3816101c8565b81146101ee57600080fd5b50565b600081519050610200816101da565b92915050565b6000806040838503121561021d5761021c6101a3565b5b600061022b858286016101f1565b925050602061023c858286016101f1565b9150509250929050565b6106aa806102556000396000f3fe608060405234801561001057600080fd5b50600436106100575760003560e01c8063047fc9aa1461005c57806355ef1df214610066578063715018a6146100845780638da5cb5b1461008e578063f2fde38b146100ac575b600080fd5b6100646100c8565b005b61006e61019d565b60405161007b919061040f565b60405180910390f35b61008c6101c3565b005b6100966101d7565b6040516100a3919061040f565b60405180910390f35b6100c660048036038101906100c1919061045b565b610200565b005b600160009054906101000a900473ffffffffffffffffffffffffffffffffffffffff1673ffffffffffffffffffffffffffffffffffffffff1663a9059cbb600260009054906101000a900473ffffffffffffffffffffffffffffffffffffffff16600a6040518363ffffffff1660e01b81526004016101489291906104d7565b602060405180830381600087803b15801561016257600080fd5b505af1158015610176573d6000803e3d6000fd5b505050506040513d601f19601f8201168201806040525081019061019a9190610538565b50565b600260009054906101000a900473ffffffffffffffffffffffffffffffffffffffff1681565b6101cb610284565b6101d56000610302565b565b60008060009054906101000a900473ffffffffffffffffffffffffffffffffffffffff16905090565b610208610284565b600073ffffffffffffffffffffffffffffffffffffffff168173ffffffffffffffffffffffffffffffffffffffff161415610278576040517f08c379a000000000000000000000000000000000000000000000000000000000815260040161026f906105e8565b60405180910390fd5b61028181610302565b50565b61028c6103c6565b73ffffffffffffffffffffffffffffffffffffffff166102aa6101d7565b73ffffffffffffffffffffffffffffffffffffffff1614610300576040517f08c379a00000000000000000000000000000000000000000000000000000000081526004016102f790610654565b60405180910390fd5b565b60008060009054906101000a900473ffffffffffffffffffffffffffffffffffffffff169050816000806101000a81548173ffffffffffffffffffffffffffffffffffffffff021916908373ffffffffffffffffffffffffffffffffffffffff1602179055508173ffffffffffffffffffffffffffffffffffffffff168173ffffffffffffffffffffffffffffffffffffffff167f8be0079c531659141344cd1fd0a4f28419497f9722a3daafe3b4186f6b6457e060405160405180910390a35050565b600033905090565b600073ffffffffffffffffffffffffffffffffffffffff82169050919050565b60006103f9826103ce565b9050919050565b610409816103ee565b82525050565b60006020820190506104246000830184610400565b92915050565b600080fd5b610438816103ee565b811461044357600080fd5b50565b6000813590506104558161042f565b92915050565b6000602082840312156104715761047061042a565b5b600061047f84828501610446565b91505092915050565b6000819050919050565b6000819050919050565b6000819050919050565b60006104c16104bc6104b784610488565b61049c565b610492565b9050919050565b6104d1816104a6565b82525050565b60006040820190506104ec6000830185610400565b6104f960208301846104c8565b9392505050565b60008115159050919050565b61051581610500565b811461052057600080fd5b50565b6000815190506105328161050c565b92915050565b60006020828403121561054e5761054d61042a565b5b600061055c84828501610523565b91505092915050565b600082825260208201905092915050565b7f4f776e61626c653a206e6577206f776e657220697320746865207a65726f206160008201527f6464726573730000000000000000000000000000000000000000000000000000602082015250565b60006105d2602683610565565b91506105dd82610576565b604082019050919050565b60006020820190508181036000830152610601816105c5565b9050919050565b7f4f776e61626c653a2063616c6c6572206973206e6f7420746865206f776e6572600082015250565b600061063e602083610565565b915061064982610608565b602082019050919050565b6000602082019050818103600083015261066d81610631565b905091905056fea2646970667358221220c455912903998d5e303fff387acbfa54d64d4eac5cc2604b8bfef07c9a46d8b864736f6c63430008090033",
  "linkReferences": {},
  "deployedLinkReferences": {}
}